{
  "contractName": "Marketplace",
  "abi": [
    {
      "constant": true,
      "inputs": [],
      "name": "name",
      "outputs": [
        {
          "name": "",
          "type": "string"
        }
      ],
      "payable": false,
      "stateMutability": "view",
      "type": "function",
      "signature": "0x06fdde03"
    },
    {
      "constant": true,
      "inputs": [
        {
          "name": "",
          "type": "uint256"
        }
      ],
      "name": "products",
      "outputs": [
        {
          "name": "id",
          "type": "uint256"
        },
        {
          "name": "name",
          "type": "string"
        },
        {
          "name": "price",
          "type": "uint256"
        },
        {
          "name": "owner",
          "type": "address"
        },
        {
          "name": "isPurchased",
          "type": "bool"
        },
        {
          "name": "isSellable",
          "type": "bool"
        }
      ],
      "payable": false,
      "stateMutability": "view",
      "type": "function",
      "signature": "0x7acc0b20"
    },
    {
      "constant": true,
      "inputs": [],
      "name": "productCount",
      "outputs": [
        {
          "name": "",
          "type": "uint256"
        }
      ],
      "payable": false,
      "stateMutability": "view",
      "type": "function",
      "signature": "0xe0f6ef87"
    },
    {
      "inputs": [],
      "payable": false,
      "stateMutability": "nonpayable",
      "type": "constructor",
      "signature": "constructor"
    },
    {
      "anonymous": false,
      "inputs": [
        {
          "indexed": false,
          "name": "id",
          "type": "uint256"
        },
        {
          "indexed": false,
          "name": "name",
          "type": "string"
        },
        {
          "indexed": false,
          "name": "price",
          "type": "uint256"
        },
        {
          "indexed": false,
          "name": "owner",
          "type": "address"
        },
        {
          "indexed": false,
          "name": "isPurchased",
          "type": "bool"
        },
        {
          "indexed": false,
          "name": "isSellable",
          "type": "bool"
        }
      ],
      "name": "ProductCreated",
      "type": "event",
      "signature": "0xc7874741d6d69988c1782a4eb1fdeff8733853cb23ed70504ede1763de6fbd75"
    },
    {
      "anonymous": false,
      "inputs": [
        {
          "indexed": false,
          "name": "id",
          "type": "uint256"
        },
        {
          "indexed": false,
          "name": "name",
          "type": "string"
        },
        {
          "indexed": false,
          "name": "price",
          "type": "uint256"
        },
        {
          "indexed": false,
          "name": "owner",
          "type": "address"
        },
        {
          "indexed": false,
          "name": "isPurchased",
          "type": "bool"
        },
        {
          "indexed": false,
          "name": "isSellable",
          "type": "bool"
        }
      ],
      "name": "ProductPurchased",
      "type": "event",
      "signature": "0x30fe1766f4be498b4b6e89a857a816b991b86ede45bd1a0f89a34cebccbd796d"
    },
    {
      "anonymous": false,
      "inputs": [
        {
          "indexed": false,
          "name": "idList",
          "type": "uint256[]"
        }
      ],
      "name": "changedSellable",
      "type": "event",
      "signature": "0x2cd60dcc30bb65d0a08e803239dbc783f03defcc2c233392330320a988a97e5b"
    },
    {
      "constant": false,
      "inputs": [
        {
          "name": "_name",
          "type": "string"
        },
        {
          "name": "_price",
          "type": "uint256"
        }
      ],
      "name": "createProduct",
      "outputs": [],
      "payable": false,
      "stateMutability": "nonpayable",
      "type": "function",
      "signature": "0xe9300c6c"
    },
    {
      "constant": false,
      "inputs": [
        {
          "name": "_id",
          "type": "uint256"
        }
      ],
      "name": "purchaseProduct",
      "outputs": [],
      "payable": true,
      "stateMutability": "payable",
      "type": "function",
      "signature": "0x38e76a03"
    },
    {
      "constant": false,
      "inputs": [
        {
          "name": "_id",
          "type": "uint256"
        }
      ],
      "name": "changeSellable_individial",
      "outputs": [],
      "payable": false,
      "stateMutability": "nonpayable",
      "type": "function",
      "signature": "0x45f2f937"
    },
    {
      "constant": false,
      "inputs": [
        {
          "name": "idList",
          "type": "uint256[]"
        }
      ],
      "name": "changeSellable",
      "outputs": [],
      "payable": false,
      "stateMutability": "nonpayable",
      "type": "function",
      "signature": "0x6bf53a95"
    }
  ],
  "bytecode": "0x6080604052600060015534801561001557600080fd5b5061113c806100256000396000f3fe608060405260043610610083576000357c0100000000000000000000000000000000000000000000000000000000900463ffffffff16806306fdde031461008857806338e76a031461011857806345f2f937146101465780636bf53a95146101815780637acc0b2014610246578063e0f6ef8714610351578063e9300c6c1461037c575b600080fd5b34801561009457600080fd5b5061009d61044e565b6040518080602001828103825283818151815260200191508051906020019080838360005b838110156100dd5780820151818401526020810190506100c2565b50505050905090810190601f16801561010a5780820380516001836020036101000a031916815260200191505b509250505060405180910390f35b6101446004803603602081101561012e57600080fd5b81019080803590602001909291905050506104ec565b005b34801561015257600080fd5b5061017f6004803603602081101561016957600080fd5b8101908080359060200190929190505050610970565b005b34801561018d57600080fd5b50610244600480360360208110156101a457600080fd5b81019080803590602001906401000000008111156101c157600080fd5b8201836020820111156101d357600080fd5b803590602001918460208302840111640100000000831117156101f557600080fd5b919080806020026020016040519081016040528093929190818152602001838360200280828437600081840152601f19601f820116905080830192505050505050509192919290505050610c01565b005b34801561025257600080fd5b5061027f6004803603602081101561026957600080fd5b8101908080359060200190929190505050610cb9565b60405180878152602001806020018681526020018573ffffffffffffffffffffffffffffffffffffffff1673ffffffffffffffffffffffffffffffffffffffff1681526020018415151515815260200183151515158152602001828103825287818151815260200191508051906020019080838360005b838110156103115780820151818401526020810190506102f6565b50505050905090810190601f16801561033e5780820380516001836020036101000a031916815260200191505b5097505050505050505060405180910390f35b34801561035d57600080fd5b50610366610dc7565b6040518082815260200191505060405180910390f35b34801561038857600080fd5b5061044c6004803603604081101561039f57600080fd5b81019080803590602001906401000000008111156103bc57600080fd5b8201836020820111156103ce57600080fd5b803590602001918460018302840111640100000000831117156103f057600080fd5b91908080601f016020809104026020016040519081016040528093929190818152602001838380828437600081840152601f19601f82011690508083019250505050505050919291929080359060200190929190505050610dcd565b005b60008054600181600116156101000203166002900480601f0160208091040260200160405190810160405280929190818152602001828054600181600116156101000203166002900480156104e45780601f106104b9576101008083540402835291602001916104e4565b820191906000526020600020905b8154815290600101906020018083116104c757829003601f168201915b505050505081565b6104f461101a565b6002600083815260200190815260200160002060c0604051908101604052908160008201548152602001600182018054600181600116156101000203166002900480601f0160208091040260200160405190810160405280929190818152602001828054600181600116156101000203166002900480156105b65780601f1061058b576101008083540402835291602001916105b6565b820191906000526020600020905b81548152906001019060200180831161059957829003601f168201915b50505050508152602001600282015481526020016003820160009054906101000a900473ffffffffffffffffffffffffffffffffffffffff1673ffffffffffffffffffffffffffffffffffffffff1673ffffffffffffffffffffffffffffffffffffffff1681526020016003820160149054906101000a900460ff161515151581526020016003820160159054906101000a900460ff16151515158152505090506000816060015190506000826000015111801561067a5750600154826000015111155b801561068e5750600115158260a001511515145b151561069957600080fd5b816040015134101515156106ac57600080fd5b81608001511515156106bd57600080fd5b3373ffffffffffffffffffffffffffffffffffffffff168173ffffffffffffffffffffffffffffffffffffffff16141515156106f857600080fd5b33826060019073ffffffffffffffffffffffffffffffffffffffff16908173ffffffffffffffffffffffffffffffffffffffff1681525050600182608001901515908115158152505060018260a0019015159081151581525050816002600085815260200190815260200160002060008201518160000155602082015181600101908051906020019061078c92919061106b565b506040820151816002015560608201518160030160006101000a81548173ffffffffffffffffffffffffffffffffffffffff021916908373ffffffffffffffffffffffffffffffffffffffff16021790555060808201518160030160146101000a81548160ff02191690831515021790555060a08201518160030160156101000a81548160ff0219169083151502179055509050508073ffffffffffffffffffffffffffffffffffffffff166108fc349081150290604051600060405180830381858888f19350505050158015610867573d6000803e3d6000fd5b507f30fe1766f4be498b4b6e89a857a816b991b86ede45bd1a0f89a34cebccbd796d600154836020015184604001513360018060405180878152602001806020018681526020018573ffffffffffffffffffffffffffffffffffffffff1673ffffffffffffffffffffffffffffffffffffffff1681526020018415151515815260200183151515158152602001828103825287818151815260200191508051906020019080838360005b8381101561092c578082015181840152602081019050610911565b50505050905090810190601f1680156109595780820380516001836020036101000a031916815260200191505b5097505050505050505060405180910390a1505050565b61097861101a565b6002600083815260200190815260200160002060c0604051908101604052908160008201548152602001600182018054600181600116156101000203166002900480601f016020809104026020016040519081016040528092919081815260200182805460018160011615610100020316600290048015610a3a5780601f10610a0f57610100808354040283529160200191610a3a565b820191906000526020600020905b815481529060010190602001808311610a1d57829003601f168201915b50505050508152602001600282015481526020016003820160009054906101000a900473ffffffffffffffffffffffffffffffffffffffff1673ffffffffffffffffffffffffffffffffffffffff1673ffffffffffffffffffffffffffffffffffffffff1681526020016003820160149054906101000a900460ff161515151581526020016003820160159054906101000a900460ff16151515158152505090503373ffffffffffffffffffffffffffffffffffffffff16816060015173ffffffffffffffffffffffffffffffffffffffff16141515610b1957600080fd5b8060a00151158160a00190151590811515815250508060026000848152602001908152602001600020600082015181600001556020820151816001019080519060200190610b6892919061106b565b506040820151816002015560608201518160030160006101000a81548173ffffffffffffffffffffffffffffffffffffffff021916908373ffffffffffffffffffffffffffffffffffffffff16021790555060808201518160030160146101000a81548160ff02191690831515021790555060a08201518160030160156101000a81548160ff0219169083151502179055509050505050565b60008090505b8151811015610c3d57610c308282815181101515610c2157fe5b90602001906020020151610970565b8080600101915050610c07565b507f2cd60dcc30bb65d0a08e803239dbc783f03defcc2c233392330320a988a97e5b816040518080602001828103825283818151815260200191508051906020019060200280838360005b83811015610ca3578082015181840152602081019050610c88565b505050509050019250505060405180910390a150565b6002602052806000526040600020600091509050806000015490806001018054600181600116156101000203166002900480601f016020809104026020016040519081016040528092919081815260200182805460018160011615610100020316600290048015610d6b5780601f10610d4057610100808354040283529160200191610d6b565b820191906000526020600020905b815481529060010190602001808311610d4e57829003601f168201915b5050505050908060020154908060030160009054906101000a900473ffffffffffffffffffffffffffffffffffffffff16908060030160149054906101000a900460ff16908060030160159054906101000a900460ff16905086565b60015481565b60008251111515610ddd57600080fd5b600081111515610dec57600080fd5b60016000815480929190600101919050555060c06040519081016040528060015481526020018381526020018281526020013373ffffffffffffffffffffffffffffffffffffffff16815260200160001515815260200160011515815250600260006001548152602001908152602001600020600082015181600001556020820151816001019080519060200190610e8592919061106b565b506040820151816002015560608201518160030160006101000a81548173ffffffffffffffffffffffffffffffffffffffff021916908373ffffffffffffffffffffffffffffffffffffffff16021790555060808201518160030160146101000a81548160ff02191690831515021790555060a08201518160030160156101000a81548160ff0219169083151502179055509050507fc7874741d6d69988c1782a4eb1fdeff8733853cb23ed70504ede1763de6fbd756001548383336000600160405180878152602001806020018681526020018573ffffffffffffffffffffffffffffffffffffffff1673ffffffffffffffffffffffffffffffffffffffff1681526020018415151515815260200183151515158152602001828103825287818151815260200191508051906020019080838360005b83811015610fd7578082015181840152602081019050610fbc565b50505050905090810190601f1680156110045780820380516001836020036101000a031916815260200191505b5097505050505050505060405180910390a15050565b60c060405190810160405280600081526020016060815260200160008152602001600073ffffffffffffffffffffffffffffffffffffffff1681526020016000151581526020016000151581525090565b828054600181600116156101000203166002900490600052602060002090601f016020900481019282601f106110ac57805160ff19168380011785556110da565b828001600101855582156110da579182015b828111156110d95782518255916020019190600101906110be565b5b5090506110e791906110eb565b5090565b61110d91905b808211156111095760008160009055506001016110f1565b5090565b9056fea165627a7a723058208375c31bfe9c0a3af06ca07218b38243960edabe4026eeb2a81fba4f899912e00029",
  "source": "\npragma solidity >=0.4.21 <0.6.0;\n\ncontract Marketplace {\n\n    string public name;\n    uint public productCount = 0;\n    mapping(uint => Product) public products;\n\n    struct Product {\n        uint id;\n        string name;\n        uint price;\n        address payable owner;\n        bool isPurchased;\n        bool isSellable;\n    }\n\n    event ProductCreated(\n        uint id,\n        string name,\n        uint price,\n        address payable owner,\n        bool isPurchased,\n        bool isSellable\n    );\n\n    event ProductPurchased(\n        uint id,\n        string name,\n        uint price,\n        address payable owner,\n        bool isPurchased,\n        bool isSellable\n    );\n\n    event changedSellable(\n        uint[] idList\n    );\n\n    constructor() public {\n        \n    }\n\n    function createProduct(string memory _name, uint _price) public{\n    \n        // require a name\n        require(bytes(_name).length > 0);\n\n        // require a price\n        require(_price > 0);\n        \n        productCount++;\n        products[productCount] = Product(productCount, _name, _price, msg.sender, false, true);\n        emit ProductCreated(productCount, _name, _price, msg.sender, false, true);\n    }\n\n    function purchaseProduct(uint _id) public payable {\n        //fetch the product\n        Product memory _product = products[_id];\n        \n        //fetch the owner\n        address payable _seller = _product.owner;\n\n        //is product valid\n        require(_product.id > 0 && _product.id <= productCount && _product.isSellable == true);\n\n        // Require that there is enough Ether in the transaction\n        require(msg.value >= _product.price);\n\n        // Require that the product has not been purchased already\n        require(!_product.isPurchased);\n\n        // Require that the buyer is not the seller\n        require(_seller != msg.sender);\n\n        //purchase\n        _product.owner=msg.sender;\n        _product.isPurchased=true;\n        _product.isSellable=true;\n        products[_id] = _product;\n\n        address(_seller).transfer(msg.value);\n        //trigger event\n        emit ProductPurchased(productCount, _product.name, _product.price, msg.sender, true, true);\n    }\n\n    function changeSellable_individial(uint _id) public{\n\n        //fetch the product\n        Product memory _product = products[_id];\n\n        //is owner changing sellable\n        require(_product.owner == msg.sender);\n\n        _product.isSellable = !_product.isSellable;\n        products[_id] = _product;\n    }\n\n    function changeSellable(uint[] memory idList) public {\n        \n        for(uint i=0; i< idList.length; i++)\n            changeSellable_individial(idList[i]);\n        emit changedSellable(idList);\n    }\n\n}\n",
  "sourcePath": "/home/pavan-k-teja/pavan/d/profession/blockchain-app/marketplace/src/contracts/Marketplace.sol",
  "compiler": {
    "name": "solc",
    "version": "0.5.0+commit.1d4f565a.Emscripten.clang"
  },
  "schemaVersion": "3.0.2",
  "updatedAt": "2021-07-23T18:35:46.135Z",
  "devdoc": {
    "methods": {}
  },
  "userdoc": {
    "methods": {}
  }
}